{
  "transactions": [
    {
      "hash": "0x5997bb830ea6fc4483a860efd82d15aface57e46d89a82e9e9b321372dac5108",
      "transactionType": "CALL",
      "contractName": null,
      "contractAddress": "0x3ccd65d81d84ef4cb3175710b4c6d70ca5068e77",
      "function": "approve(address,uint256)",
      "arguments": [
        "0x78EF05c52657130987b6260E87f53899144B1Aab",
        "50000000000000000000"
      ],
      "transaction": {
        "from": "0x0bee445fb0e187a4cf9d7155314883eef83d64b8",
        "to": "0x3ccd65d81d84ef4cb3175710b4c6d70ca5068e77",
        "gas": "0x1069d",
        "value": "0x0",
        "input": "0x095ea7b300000000000000000000000078ef05c52657130987b6260e87f53899144b1aab000000000000000000000000000000000000000000000002b5e3af16b1880000",
        "nonce": "0xe7",
        "chainId": "0xa410"
      },
      "additionalContracts": [],
      "isFixedGasLimit": false
    },
    {
      "hash": "0xd05d2b62254f2d3caaafc84bc514e8fe41d57d4c9acd8c4f3a52900ff773e996",
      "transactionType": "CALL",
      "contractName": null,
      "contractAddress": "0x6e4dab0f87420b9d57544e6a842dad96f26c0070",
      "function": "approve(address,uint256)",
      "arguments": [
        "0x78EF05c52657130987b6260E87f53899144B1Aab",
        "100000000000000000000"
      ],
      "transaction": {
        "from": "0x0bee445fb0e187a4cf9d7155314883eef83d64b8",
        "to": "0x6e4dab0f87420b9d57544e6a842dad96f26c0070",
        "gas": "0xfd42",
        "value": "0x0",
        "input": "0x095ea7b300000000000000000000000078ef05c52657130987b6260e87f53899144b1aab0000000000000000000000000000000000000000000000056bc75e2d63100000",
        "nonce": "0xe8",
        "chainId": "0xa410"
      },
      "additionalContracts": [],
      "isFixedGasLimit": false
    },
    {
      "hash": "0x72eb182d9e63de712318c4cd3e71ea4602dc68ca0789618e716cdb85ce625a1c",
      "transactionType": "CALL",
      "contractName": null,
      "contractAddress": "0x78ef05c52657130987b6260e87f53899144b1aab",
      "function": "mintLiquidity(address,address,uint24,uint256,uint256,uint256,uint256,int24,int24)",
      "arguments": [
        "0x3CCd65D81d84eF4CB3175710b4c6D70ca5068E77",
        "0x6e4dab0F87420B9D57544E6A842dAd96F26C0070",
        "3000",
        "50000000000000000000",
        "0",
        "0",
        "100000000000000000000",
        "-887220",
        "887220"
      ],
      "transaction": {
        "from": "0x0bee445fb0e187a4cf9d7155314883eef83d64b8",
        "to": "0x78ef05c52657130987b6260e87f53899144b1aab",
        "gas": "0x97069",
        "value": "0x0",
        "input": "0xf4b35fb40000000000000000000000003ccd65d81d84ef4cb3175710b4c6d70ca5068e770000000000000000000000006e4dab0f87420b9d57544e6a842dad96f26c00700000000000000000000000000000000000000000000000000000000000000bb8000000000000000000000000000000000000000000000002b5e3af16b1880000000000000000000000000000000000000000000000000000000000000000000000000000000000000000000000000000000000000000000000000000000000000000000000000000000000000000000000000000000000056bc75e2d63100000fffffffffffffffffffffffffffffffffffffffffffffffffffffffffff2764c00000000000000000000000000000000000000000000000000000000000d89b4",
        "nonce": "0xe9",
        "chainId": "0xa410"
      },
      "additionalContracts": [],
      "isFixedGasLimit": false
    }
  ],
  "receipts": [
    {
      "status": "0x1",
      "cumulativeGasUsed": "0xb391",
      "logs": [
        {
          "address": "0x3ccd65d81d84ef4cb3175710b4c6d70ca5068e77",
          "topics": [
            "0x8c5be1e5ebec7d5bd14f71427d1e84f3dd0314c0f7b2291e5b200ac8c7c3b925",
            "0x0000000000000000000000000bee445fb0e187a4cf9d7155314883eef83d64b8",
            "0x00000000000000000000000078ef05c52657130987b6260e87f53899144b1aab"
          ],
          "data": "0x000000000000000000000000000000000000000000000002b5e3af16b1880000",
          "blockHash": "0xad85110e3ed5b616f38df6dae2eda8cb195cfe160fea8305d2c684287c5120b6",
          "blockNumber": "0x2605b",
          "transactionHash": "0x5997bb830ea6fc4483a860efd82d15aface57e46d89a82e9e9b321372dac5108",
          "transactionIndex": "0x0",
          "logIndex": "0x0",
          "removed": false
        }
      ],
      "logsBloom": "0x00000000000000000010000000000000000000000000000000000000000000000000020000000000000000000000200000000000000000000000100000200000020000000000000000000000000000000000000000000000000000000000000000000000000000000000000000000000000000000000000000000000000000000000000000000000000000000000000000000200000000000000000000000000020000000000000000000000004000000000040000000000000000000000000000000000000000000000000000000000001000000000000000000000000000000010000000000000000000000000000000000000000000000000000000000000",
      "type": "0x2",
      "transactionHash": "0x5997bb830ea6fc4483a860efd82d15aface57e46d89a82e9e9b321372dac5108",
      "transactionIndex": "0x0",
      "blockHash": "0xad85110e3ed5b616f38df6dae2eda8cb195cfe160fea8305d2c684287c5120b6",
      "blockNumber": "0x2605b",
      "gasUsed": "0xb391",
      "effectiveGasPrice": "0x3c336080",
      "from": "0x0bee445fb0e187a4cf9d7155314883eef83d64b8",
      "to": "0x3ccd65d81d84ef4cb3175710b4c6d70ca5068e77",
      "contractAddress": null
    },
    {
      "status": "0x1",
      "cumulativeGasUsed": "0x16aed",
      "logs": [
        {
          "address": "0x6e4dab0f87420b9d57544e6a842dad96f26c0070",
          "topics": [
            "0x8c5be1e5ebec7d5bd14f71427d1e84f3dd0314c0f7b2291e5b200ac8c7c3b925",
            "0x0000000000000000000000000bee445fb0e187a4cf9d7155314883eef83d64b8",
            "0x00000000000000000000000078ef05c52657130987b6260e87f53899144b1aab"
          ],
          "data": "0x0000000000000000000000000000000000000000000000056bc75e2d63100000",
          "blockHash": "0xad85110e3ed5b616f38df6dae2eda8cb195cfe160fea8305d2c684287c5120b6",
          "blockNumber": "0x2605b",
          "transactionHash": "0xd05d2b62254f2d3caaafc84bc514e8fe41d57d4c9acd8c4f3a52900ff773e996",
          "transactionIndex": "0x1",
          "logIndex": "0x1",
          "removed": false
        }
      ],
      "logsBloom": "0x00000000000000000010000000000000000000000000000000000000000000000000000000000000000000000000000000000000000010000000100000200000020000002000000000000000000000000000000000000000000000000000000000000000000000000000080000000000000000000000000000000000000000000000000000000000000000000000000000000200000000000000000000000000020000000000000000000000004000000000040000000000000000000000000000000000000000000000000000000000000000000000000000000000000000000010000000000000000000000000000000000000000000000000000000000000",
      "type": "0x2",
      "transactionHash": "0xd05d2b62254f2d3caaafc84bc514e8fe41d57d4c9acd8c4f3a52900ff773e996",
      "transactionIndex": "0x1",
      "blockHash": "0xad85110e3ed5b616f38df6dae2eda8cb195cfe160fea8305d2c684287c5120b6",
      "blockNumber": "0x2605b",
      "gasUsed": "0xb75c",
      "effectiveGasPrice": "0x3c336080",
      "from": "0x0bee445fb0e187a4cf9d7155314883eef83d64b8",
      "to": "0x6e4dab0f87420b9d57544e6a842dad96f26c0070",
      "contractAddress": null
    },
    {
      "status": "0x1",
      "cumulativeGasUsed": "0x8405d",
      "logs": [
        {
          "address": "0x3ccd65d81d84ef4cb3175710b4c6d70ca5068e77",
          "topics": [
            "0xddf252ad1be2c89b69c2b068fc378daa952ba7f163c4a11628f55a4df523b3ef",
            "0x0000000000000000000000000bee445fb0e187a4cf9d7155314883eef83d64b8",
            "0x00000000000000000000000078ef05c52657130987b6260e87f53899144b1aab"
          ],
          "data": "0x000000000000000000000000000000000000000000000002b5e3af16b1880000",
          "blockHash": "0xad85110e3ed5b616f38df6dae2eda8cb195cfe160fea8305d2c684287c5120b6",
          "blockNumber": "0x2605b",
          "transactionHash": "0x72eb182d9e63de712318c4cd3e71ea4602dc68ca0789618e716cdb85ce625a1c",
          "transactionIndex": "0x2",
          "logIndex": "0x2",
          "removed": false
        },
        {
          "address": "0x6e4dab0f87420b9d57544e6a842dad96f26c0070",
          "topics": [
            "0xddf252ad1be2c89b69c2b068fc378daa952ba7f163c4a11628f55a4df523b3ef",
            "0x0000000000000000000000000bee445fb0e187a4cf9d7155314883eef83d64b8",
            "0x00000000000000000000000078ef05c52657130987b6260e87f53899144b1aab"
          ],
          "data": "0x0000000000000000000000000000000000000000000000056bc75e2d63100000",
          "blockHash": "0xad85110e3ed5b616f38df6dae2eda8cb195cfe160fea8305d2c684287c5120b6",
          "blockNumber": "0x2605b",
          "transactionHash": "0x72eb182d9e63de712318c4cd3e71ea4602dc68ca0789618e716cdb85ce625a1c",
          "transactionIndex": "0x2",
          "logIndex": "0x3",
          "removed": false
        },
        {
          "address": "0x3ccd65d81d84ef4cb3175710b4c6d70ca5068e77",
          "topics": [
            "0x8c5be1e5ebec7d5bd14f71427d1e84f3dd0314c0f7b2291e5b200ac8c7c3b925",
            "0x00000000000000000000000078ef05c52657130987b6260e87f53899144b1aab",
            "0x00000000000000000000000019b1d9282369a7e67ae78744a0f1e23fd1121712"
          ],
          "data": "0x000000000000000000000000000000000000000000000002b5e3af16b1880000",
          "blockHash": "0xad85110e3ed5b616f38df6dae2eda8cb195cfe160fea8305d2c684287c5120b6",
          "blockNumber": "0x2605b",
          "transactionHash": "0x72eb182d9e63de712318c4cd3e71ea4602dc68ca0789618e716cdb85ce625a1c",
          "transactionIndex": "0x2",
          "logIndex": "0x4",
          "removed": false
        },
        {
          "address": "0x6e4dab0f87420b9d57544e6a842dad96f26c0070",
          "topics": [
            "0x8c5be1e5ebec7d5bd14f71427d1e84f3dd0314c0f7b2291e5b200ac8c7c3b925",
            "0x00000000000000000000000078ef05c52657130987b6260e87f53899144b1aab",
            "0x00000000000000000000000019b1d9282369a7e67ae78744a0f1e23fd1121712"
          ],
          "data": "0x0000000000000000000000000000000000000000000000056bc75e2d63100000",
          "blockHash": "0xad85110e3ed5b616f38df6dae2eda8cb195cfe160fea8305d2c684287c5120b6",
          "blockNumber": "0x2605b",
          "transactionHash": "0x72eb182d9e63de712318c4cd3e71ea4602dc68ca0789618e716cdb85ce625a1c",
          "transactionIndex": "0x2",
          "logIndex": "0x5",
          "removed": false
        },
        {
          "address": "0x3ccd65d81d84ef4cb3175710b4c6d70ca5068e77",
          "topics": [
            "0xddf252ad1be2c89b69c2b068fc378daa952ba7f163c4a11628f55a4df523b3ef",
            "0x00000000000000000000000078ef05c52657130987b6260e87f53899144b1aab",
            "0x0000000000000000000000000cc432338b8cf03c6004385dabf62779aa458f62"
          ],
          "data": "0x000000000000000000000000000000000000000000000002b5e3af16b1880000",
          "blockHash": "0xad85110e3ed5b616f38df6dae2eda8cb195cfe160fea8305d2c684287c5120b6",
          "blockNumber": "0x2605b",
          "transactionHash": "0x72eb182d9e63de712318c4cd3e71ea4602dc68ca0789618e716cdb85ce625a1c",
          "transactionIndex": "0x2",
          "logIndex": "0x6",
          "removed": false
        },
        {
          "address": "0x6e4dab0f87420b9d57544e6a842dad96f26c0070",
          "topics": [
            "0xddf252ad1be2c89b69c2b068fc378daa952ba7f163c4a11628f55a4df523b3ef",
            "0x00000000000000000000000078ef05c52657130987b6260e87f53899144b1aab",
            "0x0000000000000000000000000cc432338b8cf03c6004385dabf62779aa458f62"
          ],
          "data": "0x0000000000000000000000000000000000000000000000056baa4bca85c16b9e",
          "blockHash": "0xad85110e3ed5b616f38df6dae2eda8cb195cfe160fea8305d2c684287c5120b6",
          "blockNumber": "0x2605b",
          "transactionHash": "0x72eb182d9e63de712318c4cd3e71ea4602dc68ca0789618e716cdb85ce625a1c",
          "transactionIndex": "0x2",
          "logIndex": "0x7",
          "removed": false
        },
        {
          "address": "0x0cc432338b8cf03c6004385dabf62779aa458f62",
          "topics": [
            "0x7a53080ba414158be7ec69b987b5fb7d07dee101fe85488f0853ae16239d0bde",
            "0x00000000000000000000000019b1d9282369a7e67ae78744a0f1e23fd1121712",
            "0xfffffffffffffffffffffffffffffffffffffffffffffffffffffffffff2764c",
            "0x00000000000000000000000000000000000000000000000000000000000d89b4"
          ],
          "data": "0x00000000000000000000000019b1d9282369a7e67ae78744a0f1e23fd1121712000000000000000000000000000000000000000000000003d54483c5e24ff36c000000000000000000000000000000000000000000000002b5e3af16b18800000000000000000000000000000000000000000000000000056baa4bca85c16b9e",
          "blockHash": "0xad85110e3ed5b616f38df6dae2eda8cb195cfe160fea8305d2c684287c5120b6",
          "blockNumber": "0x2605b",
          "transactionHash": "0x72eb182d9e63de712318c4cd3e71ea4602dc68ca0789618e716cdb85ce625a1c",
          "transactionIndex": "0x2",
          "logIndex": "0x8",
          "removed": false
        },
        {
          "address": "0x19b1d9282369a7e67ae78744a0f1e23fd1121712",
          "topics": [
            "0xddf252ad1be2c89b69c2b068fc378daa952ba7f163c4a11628f55a4df523b3ef",
            "0x0000000000000000000000000000000000000000000000000000000000000000",
            "0x0000000000000000000000000bee445fb0e187a4cf9d7155314883eef83d64b8",
            "0x0000000000000000000000000000000000000000000000000000000000000004"
          ],
          "data": "0x",
          "blockHash": "0xad85110e3ed5b616f38df6dae2eda8cb195cfe160fea8305d2c684287c5120b6",
          "blockNumber": "0x2605b",
          "transactionHash": "0x72eb182d9e63de712318c4cd3e71ea4602dc68ca0789618e716cdb85ce625a1c",
          "transactionIndex": "0x2",
          "logIndex": "0x9",
          "removed": false
        },
        {
          "address": "0x19b1d9282369a7e67ae78744a0f1e23fd1121712",
          "topics": [
            "0x3067048beee31b25b2f1681f88dac838c8bba36af25bfb2b7cf7473a5847e35f",
            "0x0000000000000000000000000000000000000000000000000000000000000004"
          ],
          "data": "0x000000000000000000000000000000000000000000000003d54483c5e24ff36c000000000000000000000000000000000000000000000002b5e3af16b18800000000000000000000000000000000000000000000000000056baa4bca85c16b9e",
          "blockHash": "0xad85110e3ed5b616f38df6dae2eda8cb195cfe160fea8305d2c684287c5120b6",
          "blockNumber": "0x2605b",
          "transactionHash": "0x72eb182d9e63de712318c4cd3e71ea4602dc68ca0789618e716cdb85ce625a1c",
          "transactionIndex": "0x2",
          "logIndex": "0xa",
          "removed": false
        },
        {
          "address": "0x6e4dab0f87420b9d57544e6a842dad96f26c0070",
          "topics": [
            "0x8c5be1e5ebec7d5bd14f71427d1e84f3dd0314c0f7b2291e5b200ac8c7c3b925",
            "0x00000000000000000000000078ef05c52657130987b6260e87f53899144b1aab",
            "0x00000000000000000000000019b1d9282369a7e67ae78744a0f1e23fd1121712"
          ],
          "data": "0x0000000000000000000000000000000000000000000000000000000000000000",
          "blockHash": "0xad85110e3ed5b616f38df6dae2eda8cb195cfe160fea8305d2c684287c5120b6",
          "blockNumber": "0x2605b",
          "transactionHash": "0x72eb182d9e63de712318c4cd3e71ea4602dc68ca0789618e716cdb85ce625a1c",
          "transactionIndex": "0x2",
          "logIndex": "0xb",
          "removed": false
        },
        {
          "address": "0x6e4dab0f87420b9d57544e6a842dad96f26c0070",
          "topics": [
            "0xddf252ad1be2c89b69c2b068fc378daa952ba7f163c4a11628f55a4df523b3ef",
            "0x00000000000000000000000078ef05c52657130987b6260e87f53899144b1aab",
            "0x0000000000000000000000000bee445fb0e187a4cf9d7155314883eef83d64b8"
          ],
          "data": "0x000000000000000000000000000000000000000000000000001d1262dd4e9462",
          "blockHash": "0xad85110e3ed5b616f38df6dae2eda8cb195cfe160fea8305d2c684287c5120b6",
          "blockNumber": "0x2605b",
          "transactionHash": "0x72eb182d9e63de712318c4cd3e71ea4602dc68ca0789618e716cdb85ce625a1c",
          "transactionIndex": "0x2",
          "logIndex": "0xc",
          "removed": false
        },
        {
          "address": "0x78ef05c52657130987b6260e87f53899144b1aab",
          "topics": [
            "0xccec39ad57a22fa0398f43d8764f221d70445b11ab8aa6fe9e0e243eb2b191e0",
            "0x0000000000000000000000000bee445fb0e187a4cf9d7155314883eef83d64b8",
            "0x0000000000000000000000000000000000000000000000000000000000000004"
          ],
          "data": "0x000000000000000000000000000000000000000000000003d54483c5e24ff36c",
          "blockHash": "0xad85110e3ed5b616f38df6dae2eda8cb195cfe160fea8305d2c684287c5120b6",
          "blockNumber": "0x2605b",
          "transactionHash": "0x72eb182d9e63de712318c4cd3e71ea4602dc68ca0789618e716cdb85ce625a1c",
          "transactionIndex": "0x2",
          "logIndex": "0xd",
          "removed": false
        }
      ],
      "logsBloom": "0x00000001000000000014100000000000000000000000000000000000000000000000020208000000002000000000200000008000000010000400100000280000020000002000020000000008004000000800000000000000000000000000000008000000020000000000080000000800000000000800000000000010000000000000000008000000000000000000000000000200000000000100002000000000020201800000000000000000004000020000040000000001002000000000008000000002000000000000080000080000001000008000001000000000000024000010000000000000000000000000000000000000001000004000200000000800",
      "type": "0x2",
      "transactionHash": "0x72eb182d9e63de712318c4cd3e71ea4602dc68ca0789618e716cdb85ce625a1c",
      "transactionIndex": "0x2",
      "blockHash": "0xad85110e3ed5b616f38df6dae2eda8cb195cfe160fea8305d2c684287c5120b6",
      "blockNumber": "0x2605b",
      "gasUsed": "0x6d570",
      "effectiveGasPrice": "0x3c336080",
      "from": "0x0bee445fb0e187a4cf9d7155314883eef83d64b8",
      "to": "0x78ef05c52657130987b6260e87f53899144b1aab",
      "contractAddress": null
    }
  ],
  "libraries": [],
  "pending": [],
  "returns": {},
  "timestamp": 1748975450,
  "chain": 42000,
  "commit": null
}