{
  "transactions": [
    {
      "hash": "0x9ce381a64396f037dbd0adc352d46c8c4195dfc20d27f5dc4c811698f9165b77",
      "transactionType": "CALL",
      "contractName": null,
      "contractAddress": "0x3ccd65d81d84ef4cb3175710b4c6d70ca5068e77",
      "function": "approve(address,uint256)",
      "arguments": [
        "0x78EF05c52657130987b6260E87f53899144B1Aab",
        "100000000000000000000"
      ],
      "transaction": {
        "from": "0x0bee445fb0e187a4cf9d7155314883eef83d64b8",
        "to": "0x3ccd65d81d84ef4cb3175710b4c6d70ca5068e77",
        "gas": "0x1069d",
        "value": "0x0",
        "input": "0x095ea7b300000000000000000000000078ef05c52657130987b6260e87f53899144b1aab0000000000000000000000000000000000000000000000056bc75e2d63100000",
        "nonce": "0xe1",
        "chainId": "0xa410"
      },
      "additionalContracts": [],
      "isFixedGasLimit": false
    },
    {
      "hash": "0x741371985421e8dd7cb0f169d2d5475e52629e1be3fe56db253f10f3d7f87117",
      "transactionType": "CALL",
      "contractName": null,
      "contractAddress": "0x6e4dab0f87420b9d57544e6a842dad96f26c0070",
      "function": "approve(address,uint256)",
      "arguments": [
        "0x78EF05c52657130987b6260E87f53899144B1Aab",
        "50000000000000000000"
      ],
      "transaction": {
        "from": "0x0bee445fb0e187a4cf9d7155314883eef83d64b8",
        "to": "0x6e4dab0f87420b9d57544e6a842dad96f26c0070",
        "gas": "0xfd42",
        "value": "0x0",
        "input": "0x095ea7b300000000000000000000000078ef05c52657130987b6260e87f53899144b1aab000000000000000000000000000000000000000000000002b5e3af16b1880000",
        "nonce": "0xe2",
        "chainId": "0xa410"
      },
      "additionalContracts": [],
      "isFixedGasLimit": false
    },
    {
      "hash": "0xd02a05261a6bd869b7b6d2d23a7d1a16b6afa2e63c2533c73cc7973760c7bb8f",
      "transactionType": "CALL",
      "contractName": null,
      "contractAddress": "0x78ef05c52657130987b6260e87f53899144b1aab",
      "function": "mintLiquidity(address,address,uint24,uint256,uint256,uint256,uint256,int24,int24)",
      "arguments": [
        "0x3CCd65D81d84eF4CB3175710b4c6D70ca5068E77",
        "0x6e4dab0F87420B9D57544E6A842dAd96F26C0070",
        "3000",
        "100000000000000000000",
        "0",
        "0",
        "50000000000000000000",
        "-887220",
        "887220"
      ],
      "transaction": {
        "from": "0x0bee445fb0e187a4cf9d7155314883eef83d64b8",
        "to": "0x78ef05c52657130987b6260e87f53899144b1aab",
        "gas": "0xa8a39",
        "value": "0x0",
        "input": "0xf4b35fb40000000000000000000000003ccd65d81d84ef4cb3175710b4c6d70ca5068e770000000000000000000000006e4dab0f87420b9d57544e6a842dad96f26c00700000000000000000000000000000000000000000000000000000000000000bb80000000000000000000000000000000000000000000000056bc75e2d6310000000000000000000000000000000000000000000000000000000000000000000000000000000000000000000000000000000000000000000000000000000000000000000000000000000000000000000000000000000000002b5e3af16b1880000fffffffffffffffffffffffffffffffffffffffffffffffffffffffffff2764c00000000000000000000000000000000000000000000000000000000000d89b4",
        "nonce": "0xe3",
        "chainId": "0xa410"
      },
      "additionalContracts": [],
      "isFixedGasLimit": false
    }
  ],
  "receipts": [
    {
      "status": "0x1",
      "cumulativeGasUsed": "0xb391",
      "logs": [
        {
          "address": "0x3ccd65d81d84ef4cb3175710b4c6d70ca5068e77",
          "topics": [
            "0x8c5be1e5ebec7d5bd14f71427d1e84f3dd0314c0f7b2291e5b200ac8c7c3b925",
            "0x0000000000000000000000000bee445fb0e187a4cf9d7155314883eef83d64b8",
            "0x00000000000000000000000078ef05c52657130987b6260e87f53899144b1aab"
          ],
          "data": "0x0000000000000000000000000000000000000000000000056bc75e2d63100000",
          "blockHash": "0x48e5b4957bcc349c3ad7291f34eb03da305fa03c85b520dcac1600af0773f473",
          "blockNumber": "0x25738",
          "transactionHash": "0x9ce381a64396f037dbd0adc352d46c8c4195dfc20d27f5dc4c811698f9165b77",
          "transactionIndex": "0x0",
          "logIndex": "0x0",
          "removed": false
        }
      ],
      "logsBloom": "0x00000000000000000010000000000000000000000000000000000000000000000000020000000000000000000000200000000000000000000000100000200000020000000000000000000000000000000000000000000000000000000000000000000000000000000000000000000000000000000000000000000000000000000000000000000000000000000000000000000200000000000000000000000000020000000000000000000000004000000000040000000000000000000000000000000000000000000000000000000000001000000000000000000000000000000010000000000000000000000000000000000000000000000000000000000000",
      "type": "0x2",
      "transactionHash": "0x9ce381a64396f037dbd0adc352d46c8c4195dfc20d27f5dc4c811698f9165b77",
      "transactionIndex": "0x0",
      "blockHash": "0x48e5b4957bcc349c3ad7291f34eb03da305fa03c85b520dcac1600af0773f473",
      "blockNumber": "0x25738",
      "gasUsed": "0xb391",
      "effectiveGasPrice": "0x3b9aca01",
      "from": "0x0bee445fb0e187a4cf9d7155314883eef83d64b8",
      "to": "0x3ccd65d81d84ef4cb3175710b4c6d70ca5068e77",
      "contractAddress": null
    },
    {
      "status": "0x1",
      "cumulativeGasUsed": "0x16aed",
      "logs": [
        {
          "address": "0x6e4dab0f87420b9d57544e6a842dad96f26c0070",
          "topics": [
            "0x8c5be1e5ebec7d5bd14f71427d1e84f3dd0314c0f7b2291e5b200ac8c7c3b925",
            "0x0000000000000000000000000bee445fb0e187a4cf9d7155314883eef83d64b8",
            "0x00000000000000000000000078ef05c52657130987b6260e87f53899144b1aab"
          ],
          "data": "0x000000000000000000000000000000000000000000000002b5e3af16b1880000",
          "blockHash": "0x48e5b4957bcc349c3ad7291f34eb03da305fa03c85b520dcac1600af0773f473",
          "blockNumber": "0x25738",
          "transactionHash": "0x741371985421e8dd7cb0f169d2d5475e52629e1be3fe56db253f10f3d7f87117",
          "transactionIndex": "0x1",
          "logIndex": "0x1",
          "removed": false
        }
      ],
      "logsBloom": "0x00000000000000000010000000000000000000000000000000000000000000000000000000000000000000000000000000000000000010000000100000200000020000002000000000000000000000000000000000000000000000000000000000000000000000000000080000000000000000000000000000000000000000000000000000000000000000000000000000000200000000000000000000000000020000000000000000000000004000000000040000000000000000000000000000000000000000000000000000000000000000000000000000000000000000000010000000000000000000000000000000000000000000000000000000000000",
      "type": "0x2",
      "transactionHash": "0x741371985421e8dd7cb0f169d2d5475e52629e1be3fe56db253f10f3d7f87117",
      "transactionIndex": "0x1",
      "blockHash": "0x48e5b4957bcc349c3ad7291f34eb03da305fa03c85b520dcac1600af0773f473",
      "blockNumber": "0x25738",
      "gasUsed": "0xb75c",
      "effectiveGasPrice": "0x3b9aca01",
      "from": "0x0bee445fb0e187a4cf9d7155314883eef83d64b8",
      "to": "0x6e4dab0f87420b9d57544e6a842dad96f26c0070",
      "contractAddress": null
    },
    {
      "status": "0x1",
      "cumulativeGasUsed": "0x89fde",
      "logs": [
        {
          "address": "0x3ccd65d81d84ef4cb3175710b4c6d70ca5068e77",
          "topics": [
            "0xddf252ad1be2c89b69c2b068fc378daa952ba7f163c4a11628f55a4df523b3ef",
            "0x0000000000000000000000000bee445fb0e187a4cf9d7155314883eef83d64b8",
            "0x00000000000000000000000078ef05c52657130987b6260e87f53899144b1aab"
          ],
          "data": "0x0000000000000000000000000000000000000000000000056bc75e2d63100000",
          "blockHash": "0x48e5b4957bcc349c3ad7291f34eb03da305fa03c85b520dcac1600af0773f473",
          "blockNumber": "0x25738",
          "transactionHash": "0xd02a05261a6bd869b7b6d2d23a7d1a16b6afa2e63c2533c73cc7973760c7bb8f",
          "transactionIndex": "0x2",
          "logIndex": "0x2",
          "removed": false
        },
        {
          "address": "0x6e4dab0f87420b9d57544e6a842dad96f26c0070",
          "topics": [
            "0xddf252ad1be2c89b69c2b068fc378daa952ba7f163c4a11628f55a4df523b3ef",
            "0x0000000000000000000000000bee445fb0e187a4cf9d7155314883eef83d64b8",
            "0x00000000000000000000000078ef05c52657130987b6260e87f53899144b1aab"
          ],
          "data": "0x000000000000000000000000000000000000000000000002b5e3af16b1880000",
          "blockHash": "0x48e5b4957bcc349c3ad7291f34eb03da305fa03c85b520dcac1600af0773f473",
          "blockNumber": "0x25738",
          "transactionHash": "0xd02a05261a6bd869b7b6d2d23a7d1a16b6afa2e63c2533c73cc7973760c7bb8f",
          "transactionIndex": "0x2",
          "logIndex": "0x3",
          "removed": false
        },
        {
          "address": "0x3ccd65d81d84ef4cb3175710b4c6d70ca5068e77",
          "topics": [
            "0x8c5be1e5ebec7d5bd14f71427d1e84f3dd0314c0f7b2291e5b200ac8c7c3b925",
            "0x00000000000000000000000078ef05c52657130987b6260e87f53899144b1aab",
            "0x00000000000000000000000019b1d9282369a7e67ae78744a0f1e23fd1121712"
          ],
          "data": "0x0000000000000000000000000000000000000000000000056bc75e2d63100000",
          "blockHash": "0x48e5b4957bcc349c3ad7291f34eb03da305fa03c85b520dcac1600af0773f473",
          "blockNumber": "0x25738",
          "transactionHash": "0xd02a05261a6bd869b7b6d2d23a7d1a16b6afa2e63c2533c73cc7973760c7bb8f",
          "transactionIndex": "0x2",
          "logIndex": "0x4",
          "removed": false
        },
        {
          "address": "0x6e4dab0f87420b9d57544e6a842dad96f26c0070",
          "topics": [
            "0x8c5be1e5ebec7d5bd14f71427d1e84f3dd0314c0f7b2291e5b200ac8c7c3b925",
            "0x00000000000000000000000078ef05c52657130987b6260e87f53899144b1aab",
            "0x00000000000000000000000019b1d9282369a7e67ae78744a0f1e23fd1121712"
          ],
          "data": "0x000000000000000000000000000000000000000000000002b5e3af16b1880000",
          "blockHash": "0x48e5b4957bcc349c3ad7291f34eb03da305fa03c85b520dcac1600af0773f473",
          "blockNumber": "0x25738",
          "transactionHash": "0xd02a05261a6bd869b7b6d2d23a7d1a16b6afa2e63c2533c73cc7973760c7bb8f",
          "transactionIndex": "0x2",
          "logIndex": "0x5",
          "removed": false
        },
        {
          "address": "0x3ccd65d81d84ef4cb3175710b4c6d70ca5068e77",
          "topics": [
            "0xddf252ad1be2c89b69c2b068fc378daa952ba7f163c4a11628f55a4df523b3ef",
            "0x00000000000000000000000078ef05c52657130987b6260e87f53899144b1aab",
            "0x0000000000000000000000000cc432338b8cf03c6004385dabf62779aa458f62"
          ],
          "data": "0x0000000000000000000000000000000000000000000000015af91c4b0aeca0f2",
          "blockHash": "0x48e5b4957bcc349c3ad7291f34eb03da305fa03c85b520dcac1600af0773f473",
          "blockNumber": "0x25738",
          "transactionHash": "0xd02a05261a6bd869b7b6d2d23a7d1a16b6afa2e63c2533c73cc7973760c7bb8f",
          "transactionIndex": "0x2",
          "logIndex": "0x6",
          "removed": false
        },
        {
          "address": "0x6e4dab0f87420b9d57544e6a842dad96f26c0070",
          "topics": [
            "0xddf252ad1be2c89b69c2b068fc378daa952ba7f163c4a11628f55a4df523b3ef",
            "0x00000000000000000000000078ef05c52657130987b6260e87f53899144b1aab",
            "0x0000000000000000000000000cc432338b8cf03c6004385dabf62779aa458f62"
          ],
          "data": "0x000000000000000000000000000000000000000000000002b5e3af16b187ffff",
          "blockHash": "0x48e5b4957bcc349c3ad7291f34eb03da305fa03c85b520dcac1600af0773f473",
          "blockNumber": "0x25738",
          "transactionHash": "0xd02a05261a6bd869b7b6d2d23a7d1a16b6afa2e63c2533c73cc7973760c7bb8f",
          "transactionIndex": "0x2",
          "logIndex": "0x7",
          "removed": false
        },
        {
          "address": "0x0cc432338b8cf03c6004385dabf62779aa458f62",
          "topics": [
            "0x7a53080ba414158be7ec69b987b5fb7d07dee101fe85488f0853ae16239d0bde",
            "0x00000000000000000000000019b1d9282369a7e67ae78744a0f1e23fd1121712",
            "0xfffffffffffffffffffffffffffffffffffffffffffffffffffffffffff2764c",
            "0x00000000000000000000000000000000000000000000000000000000000d89b4"
          ],
          "data": "0x00000000000000000000000019b1d9282369a7e67ae78744a0f1e23fd1121712000000000000000000000000000000000000000000000001eaac8946684c01a00000000000000000000000000000000000000000000000015af91c4b0aeca0f2000000000000000000000000000000000000000000000002b5e3af16b187ffff",
          "blockHash": "0x48e5b4957bcc349c3ad7291f34eb03da305fa03c85b520dcac1600af0773f473",
          "blockNumber": "0x25738",
          "transactionHash": "0xd02a05261a6bd869b7b6d2d23a7d1a16b6afa2e63c2533c73cc7973760c7bb8f",
          "transactionIndex": "0x2",
          "logIndex": "0x8",
          "removed": false
        },
        {
          "address": "0x19b1d9282369a7e67ae78744a0f1e23fd1121712",
          "topics": [
            "0xddf252ad1be2c89b69c2b068fc378daa952ba7f163c4a11628f55a4df523b3ef",
            "0x0000000000000000000000000000000000000000000000000000000000000000",
            "0x0000000000000000000000000bee445fb0e187a4cf9d7155314883eef83d64b8",
            "0x0000000000000000000000000000000000000000000000000000000000000003"
          ],
          "data": "0x",
          "blockHash": "0x48e5b4957bcc349c3ad7291f34eb03da305fa03c85b520dcac1600af0773f473",
          "blockNumber": "0x25738",
          "transactionHash": "0xd02a05261a6bd869b7b6d2d23a7d1a16b6afa2e63c2533c73cc7973760c7bb8f",
          "transactionIndex": "0x2",
          "logIndex": "0x9",
          "removed": false
        },
        {
          "address": "0x19b1d9282369a7e67ae78744a0f1e23fd1121712",
          "topics": [
            "0x3067048beee31b25b2f1681f88dac838c8bba36af25bfb2b7cf7473a5847e35f",
            "0x0000000000000000000000000000000000000000000000000000000000000003"
          ],
          "data": "0x000000000000000000000000000000000000000000000001eaac8946684c01a00000000000000000000000000000000000000000000000015af91c4b0aeca0f2000000000000000000000000000000000000000000000002b5e3af16b187ffff",
          "blockHash": "0x48e5b4957bcc349c3ad7291f34eb03da305fa03c85b520dcac1600af0773f473",
          "blockNumber": "0x25738",
          "transactionHash": "0xd02a05261a6bd869b7b6d2d23a7d1a16b6afa2e63c2533c73cc7973760c7bb8f",
          "transactionIndex": "0x2",
          "logIndex": "0xa",
          "removed": false
        },
        {
          "address": "0x3ccd65d81d84ef4cb3175710b4c6d70ca5068e77",
          "topics": [
            "0x8c5be1e5ebec7d5bd14f71427d1e84f3dd0314c0f7b2291e5b200ac8c7c3b925",
            "0x00000000000000000000000078ef05c52657130987b6260e87f53899144b1aab",
            "0x00000000000000000000000019b1d9282369a7e67ae78744a0f1e23fd1121712"
          ],
          "data": "0x0000000000000000000000000000000000000000000000000000000000000000",
          "blockHash": "0x48e5b4957bcc349c3ad7291f34eb03da305fa03c85b520dcac1600af0773f473",
          "blockNumber": "0x25738",
          "transactionHash": "0xd02a05261a6bd869b7b6d2d23a7d1a16b6afa2e63c2533c73cc7973760c7bb8f",
          "transactionIndex": "0x2",
          "logIndex": "0xb",
          "removed": false
        },
        {
          "address": "0x3ccd65d81d84ef4cb3175710b4c6d70ca5068e77",
          "topics": [
            "0xddf252ad1be2c89b69c2b068fc378daa952ba7f163c4a11628f55a4df523b3ef",
            "0x00000000000000000000000078ef05c52657130987b6260e87f53899144b1aab",
            "0x0000000000000000000000000bee445fb0e187a4cf9d7155314883eef83d64b8"
          ],
          "data": "0x00000000000000000000000000000000000000000000000410ce41e258235f0e",
          "blockHash": "0x48e5b4957bcc349c3ad7291f34eb03da305fa03c85b520dcac1600af0773f473",
          "blockNumber": "0x25738",
          "transactionHash": "0xd02a05261a6bd869b7b6d2d23a7d1a16b6afa2e63c2533c73cc7973760c7bb8f",
          "transactionIndex": "0x2",
          "logIndex": "0xc",
          "removed": false
        },
        {
          "address": "0x6e4dab0f87420b9d57544e6a842dad96f26c0070",
          "topics": [
            "0x8c5be1e5ebec7d5bd14f71427d1e84f3dd0314c0f7b2291e5b200ac8c7c3b925",
            "0x00000000000000000000000078ef05c52657130987b6260e87f53899144b1aab",
            "0x00000000000000000000000019b1d9282369a7e67ae78744a0f1e23fd1121712"
          ],
          "data": "0x0000000000000000000000000000000000000000000000000000000000000000",
          "blockHash": "0x48e5b4957bcc349c3ad7291f34eb03da305fa03c85b520dcac1600af0773f473",
          "blockNumber": "0x25738",
          "transactionHash": "0xd02a05261a6bd869b7b6d2d23a7d1a16b6afa2e63c2533c73cc7973760c7bb8f",
          "transactionIndex": "0x2",
          "logIndex": "0xd",
          "removed": false
        },
        {
          "address": "0x6e4dab0f87420b9d57544e6a842dad96f26c0070",
          "topics": [
            "0xddf252ad1be2c89b69c2b068fc378daa952ba7f163c4a11628f55a4df523b3ef",
            "0x00000000000000000000000078ef05c52657130987b6260e87f53899144b1aab",
            "0x0000000000000000000000000bee445fb0e187a4cf9d7155314883eef83d64b8"
          ],
          "data": "0x0000000000000000000000000000000000000000000000000000000000000001",
          "blockHash": "0x48e5b4957bcc349c3ad7291f34eb03da305fa03c85b520dcac1600af0773f473",
          "blockNumber": "0x25738",
          "transactionHash": "0xd02a05261a6bd869b7b6d2d23a7d1a16b6afa2e63c2533c73cc7973760c7bb8f",
          "transactionIndex": "0x2",
          "logIndex": "0xe",
          "removed": false
        },
        {
          "address": "0x78ef05c52657130987b6260e87f53899144b1aab",
          "topics": [
            "0xccec39ad57a22fa0398f43d8764f221d70445b11ab8aa6fe9e0e243eb2b191e0",
            "0x0000000000000000000000000bee445fb0e187a4cf9d7155314883eef83d64b8",
            "0x0000000000000000000000000000000000000000000000000000000000000003"
          ],
          "data": "0x000000000000000000000000000000000000000000000001eaac8946684c01a0",
          "blockHash": "0x48e5b4957bcc349c3ad7291f34eb03da305fa03c85b520dcac1600af0773f473",
          "blockNumber": "0x25738",
          "transactionHash": "0xd02a05261a6bd869b7b6d2d23a7d1a16b6afa2e63c2533c73cc7973760c7bb8f",
          "transactionIndex": "0x2",
          "logIndex": "0xf",
          "removed": false
        }
      ],
      "logsBloom": "0x00000001000000000014100000000000000000000000000000000000000000000000020208000000002000000000200000008000020010000400100000280000020000002000020000000008004000000800000000000000000000000000000000000000020000000000080000000800000000000800000000000010000000000000000008000000000000000000000000000200000000000100002000000000020201800000000000000000004000020000040000800001000000000000408000000002000000000000080000080000001000000000001000000000000024000010000000000000000000000000000000000000001000004000200000000800",
      "type": "0x2",
      "transactionHash": "0xd02a05261a6bd869b7b6d2d23a7d1a16b6afa2e63c2533c73cc7973760c7bb8f",
      "transactionIndex": "0x2",
      "blockHash": "0x48e5b4957bcc349c3ad7291f34eb03da305fa03c85b520dcac1600af0773f473",
      "blockNumber": "0x25738",
      "gasUsed": "0x734f1",
      "effectiveGasPrice": "0x3b9aca01",
      "from": "0x0bee445fb0e187a4cf9d7155314883eef83d64b8",
      "to": "0x78ef05c52657130987b6260e87f53899144b1aab",
      "contractAddress": null
    }
  ],
  "libraries": [],
  "pending": [],
  "returns": {},
  "timestamp": 1748968426,
  "chain": 42000,
  "commit": null
}