{
  "transactions": [
    {
      "hash": "0x0a71659a698637f0441a85d2d2ef5806451b5e27daa25fbe86cde94b25127ca2",
      "transactionType": "CALL",
      "contractName": null,
      "contractAddress": "0x7419c891ccc5a19ab4c6a836e2b1536e25dfbb27",
      "function": "approve(address,uint256)",
      "arguments": [
        "0x3CCd65D81d84eF4CB3175710b4c6D70ca5068E77",
        "10000000000000000000"
      ],
      "transaction": {
        "from": "0x0bee445fb0e187a4cf9d7155314883eef83d64b8",
        "to": "0x7419c891ccc5a19ab4c6a836e2b1536e25dfbb27",
        "gas": "0x8e44",
        "value": "0x0",
        "input": "0x095ea7b30000000000000000000000003ccd65d81d84ef4cb3175710b4c6d70ca5068e770000000000000000000000000000000000000000000000008ac7230489e80000",
        "nonce": "0x1c",
        "chainId": "0xa410"
      },
      "additionalContracts": [],
      "isFixedGasLimit": false
    },
    {
      "hash": "0x5bec1fccba76e264a2a3e66fd9d5ef42f285adf4ca55c38e448054f80250e8d9",
      "transactionType": "CALL",
      "contractName": null,
      "contractAddress": "0xd4949664cd82660aae99bedc034a0dea8a0bd517",
      "function": "approve(address,uint256)",
      "arguments": [
        "0x3CCd65D81d84eF4CB3175710b4c6D70ca5068E77",
        "2000000000000000000"
      ],
      "transaction": {
        "from": "0x0bee445fb0e187a4cf9d7155314883eef83d64b8",
        "to": "0xd4949664cd82660aae99bedc034a0dea8a0bd517",
        "gas": "0xfd4f",
        "value": "0x0",
        "input": "0x095ea7b30000000000000000000000003ccd65d81d84ef4cb3175710b4c6d70ca5068e770000000000000000000000000000000000000000000000001bc16d674ec80000",
        "nonce": "0x1d",
        "chainId": "0xa410"
      },
      "additionalContracts": [],
      "isFixedGasLimit": false
    }
  ],
  "receipts": [
    {
      "status": "0x1",
      "cumulativeGasUsed": "0x6700",
      "logs": [
        {
          "address": "0x7419c891ccc5a19ab4c6a836e2b1536e25dfbb27",
          "topics": [
            "0x8c5be1e5ebec7d5bd14f71427d1e84f3dd0314c0f7b2291e5b200ac8c7c3b925",
            "0x0000000000000000000000000bee445fb0e187a4cf9d7155314883eef83d64b8",
            "0x0000000000000000000000003ccd65d81d84ef4cb3175710b4c6d70ca5068e77"
          ],
          "data": "0x0000000000000000000000000000000000000000000000008ac7230489e80000",
          "blockHash": "0x247d1c8a89ef114738377e6dd9af916fa6931929b381a8a41915c534aa5c6ee7",
          "blockNumber": "0xb875",
          "transactionHash": "0x0a71659a698637f0441a85d2d2ef5806451b5e27daa25fbe86cde94b25127ca2",
          "transactionIndex": "0x0",
          "logIndex": "0x0",
          "removed": false
        }
      ],
      "logsBloom": "0x00000000000000000010000000000001000000000000000040000000000800000000000000000040000000000000000000000000000000000000000000200000020000000000000000000000000000000000000000000000000000000000000000000000000000000000000000000000000000000000000000000000000080000000000000000000000000000000000000000200000000000000000000000000020000040000000000000000000000000000000000000000000000000000000000000000000000000000000000000000000000000000000000000000000000000010000000000000000000000000000000000000000000000000000000000000",
      "type": "0x2",
      "transactionHash": "0x0a71659a698637f0441a85d2d2ef5806451b5e27daa25fbe86cde94b25127ca2",
      "transactionIndex": "0x0",
      "blockHash": "0x247d1c8a89ef114738377e6dd9af916fa6931929b381a8a41915c534aa5c6ee7",
      "blockNumber": "0xb875",
      "gasUsed": "0x6700",
      "effectiveGasPrice": "0x3b9aca01",
      "from": "0x0bee445fb0e187a4cf9d7155314883eef83d64b8",
      "to": "0x7419c891ccc5a19ab4c6a836e2b1536e25dfbb27",
      "contractAddress": null
    },
    {
      "status": "0x1",
      "cumulativeGasUsed": "0x1346c",
      "logs": [
        {
          "address": "0xd4949664cd82660aae99bedc034a0dea8a0bd517",
          "topics": [
            "0x8c5be1e5ebec7d5bd14f71427d1e84f3dd0314c0f7b2291e5b200ac8c7c3b925",
            "0x000000000000000000000000d4949664cd82660aae99bedc034a0dea8a0bd517",
            "0x0000000000000000000000003ccd65d81d84ef4cb3175710b4c6d70ca5068e77"
          ],
          "data": "0x0000000000000000000000000000000000000000000000001bc16d674ec80000",
          "blockHash": "0x247d1c8a89ef114738377e6dd9af916fa6931929b381a8a41915c534aa5c6ee7",
          "blockNumber": "0xb875",
          "transactionHash": "0x5bec1fccba76e264a2a3e66fd9d5ef42f285adf4ca55c38e448054f80250e8d9",
          "transactionIndex": "0x1",
          "logIndex": "0x1",
          "removed": false
        }
      ],
      "logsBloom": "0x08000000000000000000000000000000000000000000000000000000000008000000000000000040000000000000000000000000000000000000000000200000000000000000000000000000000000000000000000000000000000100000000000000000000000000000000000000000000000001000000000000000000080000000000000000000000000000000000000000000000000000000020000000000020000040000000000000000000000000000000000000000000000000000000000000000000000000000000000000010000000000000000000000000000000000010000000000000000000000000000000000000000000000000000000000000",
      "type": "0x2",
      "transactionHash": "0x5bec1fccba76e264a2a3e66fd9d5ef42f285adf4ca55c38e448054f80250e8d9",
      "transactionIndex": "0x1",
      "blockHash": "0x247d1c8a89ef114738377e6dd9af916fa6931929b381a8a41915c534aa5c6ee7",
      "blockNumber": "0xb875",
      "gasUsed": "0xcd6c",
      "effectiveGasPrice": "0x3b9aca01",
      "from": "0x0bee445fb0e187a4cf9d7155314883eef83d64b8",
      "to": "0xd4949664cd82660aae99bedc034a0dea8a0bd517",
      "contractAddress": null
    }
  ],
  "libraries": [],
  "pending": [],
  "returns": {},
  "timestamp": 1749652162,
  "chain": 42000,
  "commit": "2839fc3"
}