{
  "transactions": [
    {
      "hash": "0x4e26075c25b50376f7ace346a23101fe713ee8db5a3f6097f36805fa4c28d368",
      "transactionType": "CALL",
      "contractName": null,
      "contractAddress": "0x3ccd65d81d84ef4cb3175710b4c6d70ca5068e77",
      "function": "approve(address,uint256)",
      "arguments": [
        "0x4947CDB6d311F631242d051327190500Ee46f7C9",
        "10000000000000000000"
      ],
      "transaction": {
        "from": "0x0bee445fb0e187a4cf9d7155314883eef83d64b8",
        "to": "0x3ccd65d81d84ef4cb3175710b4c6d70ca5068e77",
        "gas": "0x1067a",
        "value": "0x0",
        "input": "0x095ea7b30000000000000000000000004947cdb6d311f631242d051327190500ee46f7c90000000000000000000000000000000000000000000000008ac7230489e80000",
        "nonce": "0xed",
        "chainId": "0xa410"
      },
      "additionalContracts": [],
      "isFixedGasLimit": false
    },
    {
      "hash": "0x11028bdc82cf422d8e363fab4e83d02cdd701fc4ff969ee6602221d135843db5",
      "transactionType": "CALL",
      "contractName": null,
      "contractAddress": "0x4947cdb6d311f631242d051327190500ee46f7c9",
      "function": "exactInputSingle((address,address,uint24,address,uint256,uint256,uint256,uint160))",
      "arguments": [
        "(0x3CCd65D81d84eF4CB3175710b4c6D70ca5068E77, 0x6e4dab0F87420B9D57544E6A842dAd96F26C0070, 3000, 0x0Bee445Fb0E187a4cf9D7155314883eef83D64B8, 1748975820, 10000000000000000000, 0, 0)"
      ],
      "transaction": {
        "from": "0x0bee445fb0e187a4cf9d7155314883eef83d64b8",
        "to": "0x4947cdb6d311f631242d051327190500ee46f7c9",
        "gas": "0x27016",
        "value": "0x0",
        "input": "0x414bf3890000000000000000000000003ccd65d81d84ef4cb3175710b4c6d70ca5068e770000000000000000000000006e4dab0f87420b9d57544e6a842dad96f26c00700000000000000000000000000000000000000000000000000000000000000bb80000000000000000000000000bee445fb0e187a4cf9d7155314883eef83d64b800000000000000000000000000000000000000000000000000000000683f40cc0000000000000000000000000000000000000000000000008ac7230489e8000000000000000000000000000000000000000000000000000000000000000000000000000000000000000000000000000000000000000000000000000000000000",
        "nonce": "0xee",
        "chainId": "0xa410"
      },
      "additionalContracts": [],
      "isFixedGasLimit": false
    }
  ],
  "receipts": [
    {
      "status": "0x1",
      "cumulativeGasUsed": "0xb379",
      "logs": [
        {
          "address": "0x3ccd65d81d84ef4cb3175710b4c6d70ca5068e77",
          "topics": [
            "0x8c5be1e5ebec7d5bd14f71427d1e84f3dd0314c0f7b2291e5b200ac8c7c3b925",
            "0x0000000000000000000000000bee445fb0e187a4cf9d7155314883eef83d64b8",
            "0x0000000000000000000000004947cdb6d311f631242d051327190500ee46f7c9"
          ],
          "data": "0x0000000000000000000000000000000000000000000000008ac7230489e80000",
          "blockHash": "0x98e947e64c18610cfa0b3683d67473daf7320812822d6c3131fc5d5147cdd2d6",
          "blockNumber": "0x260c5",
          "transactionHash": "0x4e26075c25b50376f7ace346a23101fe713ee8db5a3f6097f36805fa4c28d368",
          "transactionIndex": "0x0",
          "logIndex": "0x0",
          "removed": false
        }
      ],
      "logsBloom": "0x00000000000000000010000000000200000000000000000000000000000000000000020000000000000000000000200000000000000000000000000000200000020000000000000000000000000000000000000000000000000000000000000000000000000800000000000000000000000000000000000000000000000000000000000000000000000000000000000000000200000000000000000000000000020000000000000000000000000000000000000000000000000000000000000000000000000000000000000000000000001000000000000000000000000000000010000000000000008000000000000000000000000000000000000000000000",
      "type": "0x2",
      "transactionHash": "0x4e26075c25b50376f7ace346a23101fe713ee8db5a3f6097f36805fa4c28d368",
      "transactionIndex": "0x0",
      "blockHash": "0x98e947e64c18610cfa0b3683d67473daf7320812822d6c3131fc5d5147cdd2d6",
      "blockNumber": "0x260c5",
      "gasUsed": "0xb379",
      "effectiveGasPrice": "0x3b9aca01",
      "from": "0x0bee445fb0e187a4cf9d7155314883eef83d64b8",
      "to": "0x3ccd65d81d84ef4cb3175710b4c6d70ca5068e77",
      "contractAddress": null
    },
    {
      "status": "0x1",
      "cumulativeGasUsed": "0x25e33",
      "logs": [
        {
          "address": "0x6e4dab0f87420b9d57544e6a842dad96f26c0070",
          "topics": [
            "0xddf252ad1be2c89b69c2b068fc378daa952ba7f163c4a11628f55a4df523b3ef",
            "0x0000000000000000000000000cc432338b8cf03c6004385dabf62779aa458f62",
            "0x0000000000000000000000000bee445fb0e187a4cf9d7155314883eef83d64b8"
          ],
          "data": "0x000000000000000000000000000000000000000000000000d1c92c3b16167c6b",
          "blockHash": "0x98e947e64c18610cfa0b3683d67473daf7320812822d6c3131fc5d5147cdd2d6",
          "blockNumber": "0x260c5",
          "transactionHash": "0x11028bdc82cf422d8e363fab4e83d02cdd701fc4ff969ee6602221d135843db5",
          "transactionIndex": "0x1",
          "logIndex": "0x1",
          "removed": false
        },
        {
          "address": "0x3ccd65d81d84ef4cb3175710b4c6d70ca5068e77",
          "topics": [
            "0xddf252ad1be2c89b69c2b068fc378daa952ba7f163c4a11628f55a4df523b3ef",
            "0x0000000000000000000000000bee445fb0e187a4cf9d7155314883eef83d64b8",
            "0x0000000000000000000000000cc432338b8cf03c6004385dabf62779aa458f62"
          ],
          "data": "0x0000000000000000000000000000000000000000000000008ac7230489e80000",
          "blockHash": "0x98e947e64c18610cfa0b3683d67473daf7320812822d6c3131fc5d5147cdd2d6",
          "blockNumber": "0x260c5",
          "transactionHash": "0x11028bdc82cf422d8e363fab4e83d02cdd701fc4ff969ee6602221d135843db5",
          "transactionIndex": "0x1",
          "logIndex": "0x2",
          "removed": false
        },
        {
          "address": "0x0cc432338b8cf03c6004385dabf62779aa458f62",
          "topics": [
            "0xc42079f94a6350d7e6235f29174924f928cc2ac818eb64fed8004e115fbcca67",
            "0x0000000000000000000000004947cdb6d311f631242d051327190500ee46f7c9",
            "0x0000000000000000000000000bee445fb0e187a4cf9d7155314883eef83d64b8"
          ],
          "data": "0x0000000000000000000000000000000000000000000000008ac7230489e80000ffffffffffffffffffffffffffffffffffffffffffffffff2e36d3c4e9e9839500000000000000000000000000000000000000012dd6ead97af9dec1360e7f24000000000000000000000000000000000000000000000007aa9d9652b2e7f6ac0000000000000000000000000000000000000000000000000000000000000cde",
          "blockHash": "0x98e947e64c18610cfa0b3683d67473daf7320812822d6c3131fc5d5147cdd2d6",
          "blockNumber": "0x260c5",
          "transactionHash": "0x11028bdc82cf422d8e363fab4e83d02cdd701fc4ff969ee6602221d135843db5",
          "transactionIndex": "0x1",
          "logIndex": "0x3",
          "removed": false
        }
      ],
      "logsBloom": "0x00000000000000000010000000000200000000000000000000000000000000000000020008000000000000000000200000000000000030000000000000000000020000002000020800000008000000000800000000000000000000000000000000000000000800000000080000000000000000000000000000000010000800000000000000000000000000000000000000000200000000000100000000000000000000000000000000000000000000000000000000000001000000000000000000000002000000000000000000080000001000000000000000000000000000000000000000000000008000000000000000000000000000000000000000000000",
      "type": "0x2",
      "transactionHash": "0x11028bdc82cf422d8e363fab4e83d02cdd701fc4ff969ee6602221d135843db5",
      "transactionIndex": "0x1",
      "blockHash": "0x98e947e64c18610cfa0b3683d67473daf7320812822d6c3131fc5d5147cdd2d6",
      "blockNumber": "0x260c5",
      "gasUsed": "0x1aaba",
      "effectiveGasPrice": "0x3b9aca01",
      "from": "0x0bee445fb0e187a4cf9d7155314883eef83d64b8",
      "to": "0x4947cdb6d311f631242d051327190500ee46f7c9",
      "contractAddress": null
    }
  ],
  "libraries": [],
  "pending": [],
  "returns": {},
  "timestamp": 1748975769,
  "chain": 42000,
  "commit": null
}