{
  "transactions": [
    {
      "hash": "0x66435497368add342676dc34f2f9452253ba6f9837fc3d27ff3231efd55843f4",
      "transactionType": "CALL",
      "contractName": null,
      "contractAddress": "0xe885c930b813c833c98e4f0987c8fcf2b845612b",
      "function": "quoteExactInputSingle((address,address,uint256,uint24,uint160))",
      "arguments": [
        "(0xD4949664cD82660AaE99bEdc034a0deA8A0bd517, 0x7419C891CCC5a19ab4c6A836E2b1536e25DFbb27, 10000000000000000000, 3000, 0)"
      ],
      "transaction": {
        "from": "0x0bee445fb0e187a4cf9d7155314883eef83d64b8",
        "to": "0xe885c930b813c833c98e4f0987c8fcf2b845612b",
        "gas": "0x37b27",
        "value": "0x0",
        "input": "0xc6a5026a000000000000000000000000d4949664cd82660aae99bedc034a0dea8a0bd5170000000000000000000000007419c891ccc5a19ab4c6a836e2b1536e25dfbb270000000000000000000000000000000000000000000000008ac7230489e800000000000000000000000000000000000000000000000000000000000000000bb80000000000000000000000000000000000000000000000000000000000000000",
        "nonce": "0x26",
        "chainId": "0xa410"
      },
      "additionalContracts": [],
      "isFixedGasLimit": false
    }
  ],
  "receipts": [
    {
      "status": "0x1",
      "cumulativeGasUsed": "0x284f5",
      "logs": [],
      "logsBloom": "0x00000000000000000000000000000000000000000000000000000000000000000000000000000000000000000000000000000000000000000000000000000000000000000000000000000000000000000000000000000000000000000000000000000000000000000000000000000000000000000000000000000000000000000000000000000000000000000000000000000000000000000000000000000000000000000000000000000000000000000000000000000000000000000000000000000000000000000000000000000000000000000000000000000000000000000000000000000000000000000000000000000000000000000000000000000000",
      "type": "0x2",
      "transactionHash": "0x66435497368add342676dc34f2f9452253ba6f9837fc3d27ff3231efd55843f4",
      "transactionIndex": "0x0",
      "blockHash": "0x9034f553c78d6c433652218a661a20138c957ceb71b9453dcb169517cc194b9c",
      "blockNumber": "0xda09",
      "gasUsed": "0x284f5",
      "effectiveGasPrice": "0x3b9aca01",
      "from": "0x0bee445fb0e187a4cf9d7155314883eef83d64b8",
      "to": "0xe885c930b813c833c98e4f0987c8fcf2b845612b",
      "contractAddress": null
    }
  ],
  "libraries": [],
  "pending": [],
  "returns": {},
  "timestamp": 1749679271,
  "chain": 42000,
  "commit": "2839fc3"
}