{
  "transactions": [
    {
      "hash": "0x11d2d1b681b9fb5d991674d0207c96dd9c7e55bd155bd55a44e6d88bb3105ba7",
      "transactionType": "CALL",
      "contractName": null,
      "contractAddress": "0x38dfc353adafc24b68f13d2f5bf9fdf6b0b82484",
      "function": "quoteExactInputSingle((address,address,uint256,uint24,uint160))",
      "arguments": [
        "(0x3CCd65D81d84eF4CB3175710b4c6D70ca5068E77, 0x6e4dab0F87420B9D57544E6A842dAd96F26C0070, 1000000000000000000, 3000, 0)"
      ],
      "transaction": {
        "from": "0x0bee445fb0e187a4cf9d7155314883eef83d64b8",
        "to": "0x38dfc353adafc24b68f13d2f5bf9fdf6b0b82484",
        "gas": "0x2d65a",
        "value": "0x0",
        "input": "0xc6a5026a0000000000000000000000003ccd65d81d84ef4cb3175710b4c6d70ca5068e770000000000000000000000006e4dab0f87420b9d57544e6a842dad96f26c00700000000000000000000000000000000000000000000000000de0b6b3a76400000000000000000000000000000000000000000000000000000000000000000bb80000000000000000000000000000000000000000000000000000000000000000",
        "nonce": "0xea",
        "chainId": "0xa410"
      },
      "additionalContracts": [],
      "isFixedGasLimit": false
    }
  ],
  "receipts": [
    {
      "status": "0x1",
      "cumulativeGasUsed": "0x20ddf",
      "logs": [],
      "logsBloom": "0x00000000000000000000000000000000000000000000000000000000000000000000000000000000000000000000000000000000000000000000000000000000000000000000000000000000000000000000000000000000000000000000000000000000000000000000000000000000000000000000000000000000000000000000000000000000000000000000000000000000000000000000000000000000000000000000000000000000000000000000000000000000000000000000000000000000000000000000000000000000000000000000000000000000000000000000000000000000000000000000000000000000000000000000000000000000",
      "type": "0x2",
      "transactionHash": "0x11d2d1b681b9fb5d991674d0207c96dd9c7e55bd155bd55a44e6d88bb3105ba7",
      "transactionIndex": "0x0",
      "blockHash": "0xdf9c4ffbc0ebe50270e8ee6790716168b3d25f50cfe5dcf42d70892d3662e847",
      "blockNumber": "0x26095",
      "gasUsed": "0x20ddf",
      "effectiveGasPrice": "0x3b9aca01",
      "from": "0x0bee445fb0e187a4cf9d7155314883eef83d64b8",
      "to": "0x38dfc353adafc24b68f13d2f5bf9fdf6b0b82484",
      "contractAddress": null
    }
  ],
  "libraries": [],
  "pending": [],
  "returns": {},
  "timestamp": 1748975626,
  "chain": 42000,
  "commit": null
}