{
  "transactions": [
    {
      "hash": "0xdb16ffe65699e07e23a922e9d3ff5f356185146d4b30760e7b0c71c224d2dc4b",
      "transactionType": "CALL",
      "contractName": null,
      "contractAddress": "0x6e4dab0f87420b9d57544e6a842dad96f26c0070",
      "function": "approve(address,uint256)",
      "arguments": [
        "0x19B1D9282369a7e67aE78744A0f1E23FD1121712",
        "1000000000000000000"
      ],
      "transaction": {
        "from": "0x0bee445fb0e187a4cf9d7155314883eef83d64b8",
        "to": "0x6e4dab0f87420b9d57544e6a842dad96f26c0070",
        "gas": "0xfd33",
        "value": "0x0",
        "input": "0x095ea7b300000000000000000000000019b1d9282369a7e67ae78744a0f1e23fd11217120000000000000000000000000000000000000000000000000de0b6b3a7640000",
        "nonce": "0xd3",
        "chainId": "0xa410"
      },
      "additionalContracts": [],
      "isFixedGasLimit": false
    },
    {
      "hash": "0x234ba5c6940cc22fd6c10133aa23ba0c567a0186948bca95ca91c3ae6950d68c",
      "transactionType": "CALL",
      "contractName": null,
      "contractAddress": "0xb686e202afa45350af6b74b5f92d4519b86b2747",
      "function": "approve(address,uint256)",
      "arguments": [
        "0x19B1D9282369a7e67aE78744A0f1E23FD1121712",
        "5000000000000000000"
      ],
      "transaction": {
        "from": "0x0bee445fb0e187a4cf9d7155314883eef83d64b8",
        "to": "0xb686e202afa45350af6b74b5f92d4519b86b2747",
        "gas": "0xf7f5",
        "value": "0x0",
        "input": "0x095ea7b300000000000000000000000019b1d9282369a7e67ae78744a0f1e23fd11217120000000000000000000000000000000000000000000000004563918244f40000",
        "nonce": "0xd4",
        "chainId": "0xa410"
      },
      "additionalContracts": [],
      "isFixedGasLimit": false
    }
  ],
  "receipts": [
    {
      "status": "0x1",
      "cumulativeGasUsed": "0xb750",
      "logs": [
        {
          "address": "0x6e4dab0f87420b9d57544e6a842dad96f26c0070",
          "topics": [
            "0x8c5be1e5ebec7d5bd14f71427d1e84f3dd0314c0f7b2291e5b200ac8c7c3b925",
            "0x0000000000000000000000000bee445fb0e187a4cf9d7155314883eef83d64b8",
            "0x00000000000000000000000019b1d9282369a7e67ae78744a0f1e23fd1121712"
          ],
          "data": "0x0000000000000000000000000000000000000000000000000de0b6b3a7640000",
          "blockHash": "0x04ec51aa0329fd0d1c7d80a5a86dd8056a162a062628318d23bd6c36781ed53e",
          "blockNumber": "0x24571",
          "transactionHash": "0xdb16ffe65699e07e23a922e9d3ff5f356185146d4b30760e7b0c71c224d2dc4b",
          "transactionIndex": "0x0",
          "logIndex": "0x0",
          "removed": false
        }
      ],
      "logsBloom": "0x00000000000000000010000000000000000000000000000000000000000000000000000000000000000000000000000000008000000010000000000000200000020000002000000000000000000000000000000000000000000000000000000000000000000000000000080000000000000000000000000000000000000000000000000000000000000000000000000000000200000000000000000000000000020000000000000000000000000000000000000000000000000000000000008000000000000000000000000000000000000000000000001000000000000000000010000000000000000000000000000000000000000000000000000000000000",
      "type": "0x2",
      "transactionHash": "0xdb16ffe65699e07e23a922e9d3ff5f356185146d4b30760e7b0c71c224d2dc4b",
      "transactionIndex": "0x0",
      "blockHash": "0x04ec51aa0329fd0d1c7d80a5a86dd8056a162a062628318d23bd6c36781ed53e",
      "blockNumber": "0x24571",
      "gasUsed": "0xb750",
      "effectiveGasPrice": "0x3b9aca01",
      "from": "0x0bee445fb0e187a4cf9d7155314883eef83d64b8",
      "to": "0x6e4dab0f87420b9d57544e6a842dad96f26c0070",
      "contractAddress": null
    },
    {
      "status": "0x1",
      "cumulativeGasUsed": "0x16ad5",
      "logs": [
        {
          "address": "0xb686e202afa45350af6b74b5f92d4519b86b2747",
          "topics": [
            "0x8c5be1e5ebec7d5bd14f71427d1e84f3dd0314c0f7b2291e5b200ac8c7c3b925",
            "0x0000000000000000000000000bee445fb0e187a4cf9d7155314883eef83d64b8",
            "0x00000000000000000000000019b1d9282369a7e67ae78744a0f1e23fd1121712"
          ],
          "data": "0x0000000000000000000000000000000000000000000000004563918244f40000",
          "blockHash": "0x04ec51aa0329fd0d1c7d80a5a86dd8056a162a062628318d23bd6c36781ed53e",
          "blockNumber": "0x24571",
          "transactionHash": "0x234ba5c6940cc22fd6c10133aa23ba0c567a0186948bca95ca91c3ae6950d68c",
          "transactionIndex": "0x1",
          "logIndex": "0x1",
          "removed": false
        }
      ],
      "logsBloom": "0x00000000000000000010000000000000000000000000000000000000000000000000000000000000001000000000000000008000000000000000000000200000020000000000000000000000000000000000000000000000000000000000000000000000000000000000000000000000008000000000000040000000000000000000000000000000000000000000000000000200000000000000000000000000020000000000000000000000000000000000000000000000000000000000008000000000000000000000000000000000000000000000001000000000000000000010000000000000000000000000000000000000000000000000000000000000",
      "type": "0x2",
      "transactionHash": "0x234ba5c6940cc22fd6c10133aa23ba0c567a0186948bca95ca91c3ae6950d68c",
      "transactionIndex": "0x1",
      "blockHash": "0x04ec51aa0329fd0d1c7d80a5a86dd8056a162a062628318d23bd6c36781ed53e",
      "blockNumber": "0x24571",
      "gasUsed": "0xb385",
      "effectiveGasPrice": "0x3b9aca01",
      "from": "0x0bee445fb0e187a4cf9d7155314883eef83d64b8",
      "to": "0xb686e202afa45350af6b74b5f92d4519b86b2747",
      "contractAddress": null
    }
  ],
  "libraries": [],
  "pending": [],
  "returns": {},
  "timestamp": 1748954755,
  "chain": 42000,
  "commit": null
}