{
  "transactions": [
    {
      "hash": "0x8fb59148a9c190f74e0b670925f72a20536990f6e6a8ba193005de859edcd643",
      "transactionType": "CALL",
      "contractName": null,
      "contractAddress": "0xde5108729a5a12f54c7a53e946baf11354997d68",
      "function": "initialize(uint160)",
      "arguments": [
        "35431911422859142059220343232"
      ],
      "transaction": {
        "from": "0x0bee445fb0e187a4cf9d7155314883eef83d64b8",
        "to": "0xde5108729a5a12f54c7a53e946baf11354997d68",
        "gas": "0x17c04",
        "value": "0x0",
        "input": "0xf637731d0000000000000000000000000000000000000000727c9716ffb764d594a519c0",
        "nonce": "0xd2",
        "chainId": "0xa410"
      },
      "additionalContracts": [],
      "isFixedGasLimit": false
    }
  ],
  "receipts": [
    {
      "status": "0x1",
      "cumulativeGasUsed": "0x11320",
      "logs": [
        {
          "address": "0xde5108729a5a12f54c7a53e946baf11354997d68",
          "topics": [
            "0x98636036cb66a9c19a37435efc1e90142190214e8abeb821bdba3f2990dd4c95"
          ],
          "data": "0x0000000000000000000000000000000000000000727c9716ffb764d594a519c0ffffffffffffffffffffffffffffffffffffffffffffffffffffffffffffc120",
          "blockHash": "0xa74382996b33b42d22c5fab799cb6645bc74469fa738b4bbc87ad50c8e22a58e",
          "blockNumber": "0x23669",
          "transactionHash": "0x8fb59148a9c190f74e0b670925f72a20536990f6e6a8ba193005de859edcd643",
          "transactionIndex": "0x0",
          "logIndex": "0x0",
          "removed": false
        }
      ],
      "logsBloom": "0x00000000000000000000000000000000000000000000000000000000000800000000000000000000000000000000000000000000000000000000000000000000000000000000000000000000000000000001000000000000000000000000000000000000000000000000000000000000000000000000000000100000000000000000000000000000000000000000000000000000000000000000000000000000000000000000000000000000000000000000000000000000000000000000080000000000000000000000000000000000200000001000000000000000000000000000000000000000000000000000000000000000000000000000000000000000",
      "type": "0x2",
      "transactionHash": "0x8fb59148a9c190f74e0b670925f72a20536990f6e6a8ba193005de859edcd643",
      "transactionIndex": "0x0",
      "blockHash": "0xa74382996b33b42d22c5fab799cb6645bc74469fa738b4bbc87ad50c8e22a58e",
      "blockNumber": "0x23669",
      "gasUsed": "0x11320",
      "effectiveGasPrice": "0x3b9aca01",
      "from": "0x0bee445fb0e187a4cf9d7155314883eef83d64b8",
      "to": "0xde5108729a5a12f54c7a53e946baf11354997d68",
      "contractAddress": null
    }
  ],
  "libraries": [],
  "pending": [],
  "returns": {},
  "timestamp": 1748943198,
  "chain": 42000,
  "commit": null
}