{
  "transactions": [
    {
      "hash": "0xb638846a05e58c0da22a5b8f52203340d74d5962fffb8e3153a09ed964ab4268",
      "transactionType": "CALL",
      "contractName": null,
      "contractAddress": "0x6e4dab0f87420b9d57544e6a842dad96f26c0070",
      "function": "approve(address,uint256)",
      "arguments": [
        "0x366Acbdd71748A634D9452865797E3b0863d3200",
        "5000000000000000000"
      ],
      "transaction": {
        "from": "0x0bee445fb0e187a4cf9d7155314883eef83d64b8",
        "to": "0x6e4dab0f87420b9d57544e6a842dad96f26c0070",
        "gas": "0xfd22",
        "value": "0x0",
        "input": "0x095ea7b3000000000000000000000000366acbdd71748a634d9452865797e3b0863d32000000000000000000000000000000000000000000000000004563918244f40000",
        "nonce": "0xd7",
        "chainId": "0xa410"
      },
      "additionalContracts": [],
      "isFixedGasLimit": false
    },
    {
      "hash": "0xc2475ba1711bc426548e973a0ab5629efa8d52feab4cbdbf2e610b3ee690f5e3",
      "transactionType": "CALL",
      "contractName": null,
      "contractAddress": "0xb686e202afa45350af6b74b5f92d4519b86b2747",
      "function": "approve(address,uint256)",
      "arguments": [
        "0x366Acbdd71748A634D9452865797E3b0863d3200",
        "10000000000000000000"
      ],
      "transaction": {
        "from": "0x0bee445fb0e187a4cf9d7155314883eef83d64b8",
        "to": "0xb686e202afa45350af6b74b5f92d4519b86b2747",
        "gas": "0x1067a",
        "value": "0x0",
        "input": "0x095ea7b3000000000000000000000000366acbdd71748a634d9452865797e3b0863d32000000000000000000000000000000000000000000000000008ac7230489e80000",
        "nonce": "0xd8",
        "chainId": "0xa410"
      },
      "additionalContracts": [],
      "isFixedGasLimit": false
    },
    {
      "hash": "0x6453b2c0b756582a9bb27ab6656ec8d5a837b41b16180c3856dddf1eb957ceeb",
      "transactionType": "CALL",
      "contractName": null,
      "contractAddress": "0x366acbdd71748a634d9452865797e3b0863d3200",
      "function": "addLiquidity(address,address,uint24,uint256,uint256,int24,int24)",
      "arguments": [
        "0x6e4dab0F87420B9D57544E6A842dAd96F26C0070",
        "0xb686E202aFA45350aF6b74B5f92D4519B86b2747",
        "3000",
        "5000000000000000000",
        "10000000000000000000",
        "-120",
        "120"
      ],
      "transaction": {
        "from": "0x0bee445fb0e187a4cf9d7155314883eef83d64b8",
        "to": "0x366acbdd71748a634d9452865797e3b0863d3200",
        "gas": "0xefb83",
        "value": "0x0",
        "input": "0xafbce84e0000000000000000000000006e4dab0f87420b9d57544e6a842dad96f26c0070000000000000000000000000b686e202afa45350af6b74b5f92d4519b86b27470000000000000000000000000000000000000000000000000000000000000bb80000000000000000000000000000000000000000000000004563918244f400000000000000000000000000000000000000000000000000008ac7230489e80000ffffffffffffffffffffffffffffffffffffffffffffffffffffffffffffff880000000000000000000000000000000000000000000000000000000000000078",
        "nonce": "0xd9",
        "chainId": "0xa410"
      },
      "additionalContracts": [],
      "isFixedGasLimit": false
    }
  ],
  "receipts": [
    {
      "status": "0x1",
      "cumulativeGasUsed": "0xb744",
      "logs": [
        {
          "address": "0x6e4dab0f87420b9d57544e6a842dad96f26c0070",
          "topics": [
            "0x8c5be1e5ebec7d5bd14f71427d1e84f3dd0314c0f7b2291e5b200ac8c7c3b925",
            "0x0000000000000000000000000bee445fb0e187a4cf9d7155314883eef83d64b8",
            "0x000000000000000000000000366acbdd71748a634d9452865797e3b0863d3200"
          ],
          "data": "0x0000000000000000000000000000000000000000000000004563918244f40000",
          "blockHash": "0x02f8cc29751b72d618a33113b2dc815b58a4e23aa6fa1a746084b0b504b161bc",
          "blockNumber": "0x251d2",
          "transactionHash": "0xb638846a05e58c0da22a5b8f52203340d74d5962fffb8e3153a09ed964ab4268",
          "transactionIndex": "0x0",
          "logIndex": "0x0",
          "removed": false
        }
      ],
      "logsBloom": "0x00100000000000000010000000000000000000000000000800000000000000000000000000000000000000000000000000000000000010000000000000200000020000002000000000000000000000000000000000000000000000000000000000000000000000000000080000000000000000000000000000000000000000000000000010000000000000000000000000000200000000000000000000000000020000000000000000000000000000000000000000000000000000000000000000000000000000000000000000000000000000000000000000000000000000000010000000000000000000000000000000000000000000000000000000000000",
      "type": "0x2",
      "transactionHash": "0xb638846a05e58c0da22a5b8f52203340d74d5962fffb8e3153a09ed964ab4268",
      "transactionIndex": "0x0",
      "blockHash": "0x02f8cc29751b72d618a33113b2dc815b58a4e23aa6fa1a746084b0b504b161bc",
      "blockNumber": "0x251d2",
      "gasUsed": "0xb744",
      "effectiveGasPrice": "0x3b9aca01",
      "from": "0x0bee445fb0e187a4cf9d7155314883eef83d64b8",
      "to": "0x6e4dab0f87420b9d57544e6a842dad96f26c0070",
      "contractAddress": null
    },
    {
      "status": "0x1",
      "cumulativeGasUsed": "0x16abd",
      "logs": [
        {
          "address": "0xb686e202afa45350af6b74b5f92d4519b86b2747",
          "topics": [
            "0x8c5be1e5ebec7d5bd14f71427d1e84f3dd0314c0f7b2291e5b200ac8c7c3b925",
            "0x0000000000000000000000000bee445fb0e187a4cf9d7155314883eef83d64b8",
            "0x000000000000000000000000366acbdd71748a634d9452865797e3b0863d3200"
          ],
          "data": "0x0000000000000000000000000000000000000000000000008ac7230489e80000",
          "blockHash": "0x02f8cc29751b72d618a33113b2dc815b58a4e23aa6fa1a746084b0b504b161bc",
          "blockNumber": "0x251d2",
          "transactionHash": "0xc2475ba1711bc426548e973a0ab5629efa8d52feab4cbdbf2e610b3ee690f5e3",
          "transactionIndex": "0x1",
          "logIndex": "0x1",
          "removed": false
        }
      ],
      "logsBloom": "0x00100000000000000010000000000000000000000000000800000000000000000000000000000000001000000000000000000000000000000000000000200000020000000000000000000000000000000000000000000000000000000000000000000000000000000000000000000000008000000000000040000000000000000000000010000000000000000000000000000200000000000000000000000000020000000000000000000000000000000000000000000000000000000000000000000000000000000000000000000000000000000000000000000000000000000010000000000000000000000000000000000000000000000000000000000000",
      "type": "0x2",
      "transactionHash": "0xc2475ba1711bc426548e973a0ab5629efa8d52feab4cbdbf2e610b3ee690f5e3",
      "transactionIndex": "0x1",
      "blockHash": "0x02f8cc29751b72d618a33113b2dc815b58a4e23aa6fa1a746084b0b504b161bc",
      "blockNumber": "0x251d2",
      "gasUsed": "0xb379",
      "effectiveGasPrice": "0x3b9aca01",
      "from": "0x0bee445fb0e187a4cf9d7155314883eef83d64b8",
      "to": "0xb686e202afa45350af6b74b5f92d4519b86b2747",
      "contractAddress": null
    },
    {
      "status": "0x1",
      "cumulativeGasUsed": "0xc4395",
      "logs": [
        {
          "address": "0x6e4dab0f87420b9d57544e6a842dad96f26c0070",
          "topics": [
            "0xddf252ad1be2c89b69c2b068fc378daa952ba7f163c4a11628f55a4df523b3ef",
            "0x0000000000000000000000000bee445fb0e187a4cf9d7155314883eef83d64b8",
            "0x000000000000000000000000366acbdd71748a634d9452865797e3b0863d3200"
          ],
          "data": "0x0000000000000000000000000000000000000000000000004563918244f40000",
          "blockHash": "0x02f8cc29751b72d618a33113b2dc815b58a4e23aa6fa1a746084b0b504b161bc",
          "blockNumber": "0x251d2",
          "transactionHash": "0x6453b2c0b756582a9bb27ab6656ec8d5a837b41b16180c3856dddf1eb957ceeb",
          "transactionIndex": "0x2",
          "logIndex": "0x2",
          "removed": false
        },
        {
          "address": "0xb686e202afa45350af6b74b5f92d4519b86b2747",
          "topics": [
            "0xddf252ad1be2c89b69c2b068fc378daa952ba7f163c4a11628f55a4df523b3ef",
            "0x0000000000000000000000000bee445fb0e187a4cf9d7155314883eef83d64b8",
            "0x000000000000000000000000366acbdd71748a634d9452865797e3b0863d3200"
          ],
          "data": "0x0000000000000000000000000000000000000000000000008ac7230489e80000",
          "blockHash": "0x02f8cc29751b72d618a33113b2dc815b58a4e23aa6fa1a746084b0b504b161bc",
          "blockNumber": "0x251d2",
          "transactionHash": "0x6453b2c0b756582a9bb27ab6656ec8d5a837b41b16180c3856dddf1eb957ceeb",
          "transactionIndex": "0x2",
          "logIndex": "0x3",
          "removed": false
        },
        {
          "address": "0x6e4dab0f87420b9d57544e6a842dad96f26c0070",
          "topics": [
            "0x8c5be1e5ebec7d5bd14f71427d1e84f3dd0314c0f7b2291e5b200ac8c7c3b925",
            "0x000000000000000000000000366acbdd71748a634d9452865797e3b0863d3200",
            "0x00000000000000000000000019b1d9282369a7e67ae78744a0f1e23fd1121712"
          ],
          "data": "0x0000000000000000000000000000000000000000000000004563918244f40000",
          "blockHash": "0x02f8cc29751b72d618a33113b2dc815b58a4e23aa6fa1a746084b0b504b161bc",
          "blockNumber": "0x251d2",
          "transactionHash": "0x6453b2c0b756582a9bb27ab6656ec8d5a837b41b16180c3856dddf1eb957ceeb",
          "transactionIndex": "0x2",
          "logIndex": "0x4",
          "removed": false
        },
        {
          "address": "0xb686e202afa45350af6b74b5f92d4519b86b2747",
          "topics": [
            "0x8c5be1e5ebec7d5bd14f71427d1e84f3dd0314c0f7b2291e5b200ac8c7c3b925",
            "0x000000000000000000000000366acbdd71748a634d9452865797e3b0863d3200",
            "0x00000000000000000000000019b1d9282369a7e67ae78744a0f1e23fd1121712"
          ],
          "data": "0x0000000000000000000000000000000000000000000000008ac7230489e80000",
          "blockHash": "0x02f8cc29751b72d618a33113b2dc815b58a4e23aa6fa1a746084b0b504b161bc",
          "blockNumber": "0x251d2",
          "transactionHash": "0x6453b2c0b756582a9bb27ab6656ec8d5a837b41b16180c3856dddf1eb957ceeb",
          "transactionIndex": "0x2",
          "logIndex": "0x5",
          "removed": false
        },
        {
          "address": "0xb686e202afa45350af6b74b5f92d4519b86b2747",
          "topics": [
            "0xddf252ad1be2c89b69c2b068fc378daa952ba7f163c4a11628f55a4df523b3ef",
            "0x000000000000000000000000366acbdd71748a634d9452865797e3b0863d3200",
            "0x00000000000000000000000089619385f8abdac59f06e1e14ce62782eab133df"
          ],
          "data": "0x0000000000000000000000000000000000000000000000008ac7230489e80000",
          "blockHash": "0x02f8cc29751b72d618a33113b2dc815b58a4e23aa6fa1a746084b0b504b161bc",
          "blockNumber": "0x251d2",
          "transactionHash": "0x6453b2c0b756582a9bb27ab6656ec8d5a837b41b16180c3856dddf1eb957ceeb",
          "transactionIndex": "0x2",
          "logIndex": "0x6",
          "removed": false
        },
        {
          "address": "0x89619385f8abdac59f06e1e14ce62782eab133df",
          "topics": [
            "0x7a53080ba414158be7ec69b987b5fb7d07dee101fe85488f0853ae16239d0bde",
            "0x00000000000000000000000019b1d9282369a7e67ae78744a0f1e23fd1121712",
            "0xffffffffffffffffffffffffffffffffffffffffffffffffffffffffffffff88",
            "0x0000000000000000000000000000000000000000000000000000000000000078"
          ],
          "data": "0x00000000000000000000000019b1d9282369a7e67ae78744a0f1e23fd112171200000000000000000000000000000000000000000000002d2d54ff3b3ce9c22300000000000000000000000000000000000000000000000000000000000000000000000000000000000000000000000000000000000000008ac7230489e80000",
          "blockHash": "0x02f8cc29751b72d618a33113b2dc815b58a4e23aa6fa1a746084b0b504b161bc",
          "blockNumber": "0x251d2",
          "transactionHash": "0x6453b2c0b756582a9bb27ab6656ec8d5a837b41b16180c3856dddf1eb957ceeb",
          "transactionIndex": "0x2",
          "logIndex": "0x7",
          "removed": false
        },
        {
          "address": "0x19b1d9282369a7e67ae78744a0f1e23fd1121712",
          "topics": [
            "0xddf252ad1be2c89b69c2b068fc378daa952ba7f163c4a11628f55a4df523b3ef",
            "0x0000000000000000000000000000000000000000000000000000000000000000",
            "0x000000000000000000000000366acbdd71748a634d9452865797e3b0863d3200",
            "0x0000000000000000000000000000000000000000000000000000000000000001"
          ],
          "data": "0x",
          "blockHash": "0x02f8cc29751b72d618a33113b2dc815b58a4e23aa6fa1a746084b0b504b161bc",
          "blockNumber": "0x251d2",
          "transactionHash": "0x6453b2c0b756582a9bb27ab6656ec8d5a837b41b16180c3856dddf1eb957ceeb",
          "transactionIndex": "0x2",
          "logIndex": "0x8",
          "removed": false
        },
        {
          "address": "0x19b1d9282369a7e67ae78744a0f1e23fd1121712",
          "topics": [
            "0x3067048beee31b25b2f1681f88dac838c8bba36af25bfb2b7cf7473a5847e35f",
            "0x0000000000000000000000000000000000000000000000000000000000000001"
          ],
          "data": "0x00000000000000000000000000000000000000000000002d2d54ff3b3ce9c22300000000000000000000000000000000000000000000000000000000000000000000000000000000000000000000000000000000000000008ac7230489e80000",
          "blockHash": "0x02f8cc29751b72d618a33113b2dc815b58a4e23aa6fa1a746084b0b504b161bc",
          "blockNumber": "0x251d2",
          "transactionHash": "0x6453b2c0b756582a9bb27ab6656ec8d5a837b41b16180c3856dddf1eb957ceeb",
          "transactionIndex": "0x2",
          "logIndex": "0x9",
          "removed": false
        },
        {
          "address": "0x366acbdd71748a634d9452865797e3b0863d3200",
          "topics": [
            "0xccec39ad57a22fa0398f43d8764f221d70445b11ab8aa6fe9e0e243eb2b191e0",
            "0x0000000000000000000000000bee445fb0e187a4cf9d7155314883eef83d64b8",
            "0x0000000000000000000000000000000000000000000000000000000000000001"
          ],
          "data": "0x00000000000000000000000000000000000000000000002d2d54ff3b3ce9c223",
          "blockHash": "0x02f8cc29751b72d618a33113b2dc815b58a4e23aa6fa1a746084b0b504b161bc",
          "blockNumber": "0x251d2",
          "transactionHash": "0x6453b2c0b756582a9bb27ab6656ec8d5a837b41b16180c3856dddf1eb957ceeb",
          "transactionIndex": "0x2",
          "logIndex": "0xa",
          "removed": false
        }
      ],
      "logsBloom": "0x00100001000000000010100000000000000000000000000800000000000000000000000200000000001000200000000000008000000010000400000000240000020000002010004000200008400000000000000000040000000000000000000000000000020000040000080000008800008000000800000040000010000000000200000018000000000000000000000000000200000000000000000020000000020001000000000000000000000000000000000000000000000000000000008000000002000000000000080000000000000000000000001080000000000064000010000000000000804000001000000000000000001000000000240000000800",
      "type": "0x2",
      "transactionHash": "0x6453b2c0b756582a9bb27ab6656ec8d5a837b41b16180c3856dddf1eb957ceeb",
      "transactionIndex": "0x2",
      "blockHash": "0x02f8cc29751b72d618a33113b2dc815b58a4e23aa6fa1a746084b0b504b161bc",
      "blockNumber": "0x251d2",
      "gasUsed": "0xad8d8",
      "effectiveGasPrice": "0x3b9aca01",
      "from": "0x0bee445fb0e187a4cf9d7155314883eef83d64b8",
      "to": "0x366acbdd71748a634d9452865797e3b0863d3200",
      "contractAddress": null
    }
  ],
  "libraries": [],
  "pending": [],
  "returns": {},
  "timestamp": 1748964273,
  "chain": 42000,
  "commit": null
}